{
  "contractName": "BscNFT",
  "abi": [
    {
      "inputs": [],
      "stateMutability": "nonpayable",
      "type": "constructor"
    },
    {
      "anonymous": false,
      "inputs": [
        {
          "indexed": true,
          "internalType": "address",
          "name": "owner",
          "type": "address"
        },
        {
          "indexed": true,
          "internalType": "address",
          "name": "approved",
          "type": "address"
        },
        {
          "indexed": true,
          "internalType": "uint256",
          "name": "tokenId",
          "type": "uint256"
        }
      ],
      "name": "Approval",
      "type": "event"
    },
    {
      "anonymous": false,
      "inputs": [
        {
          "indexed": true,
          "internalType": "address",
          "name": "owner",
          "type": "address"
        },
        {
          "indexed": true,
          "internalType": "address",
          "name": "operator",
          "type": "address"
        },
        {
          "indexed": false,
          "internalType": "bool",
          "name": "approved",
          "type": "bool"
        }
      ],
      "name": "ApprovalForAll",
      "type": "event"
    },
    {
      "anonymous": false,
      "inputs": [
        {
          "indexed": true,
          "internalType": "address",
          "name": "from",
          "type": "address"
        },
        {
          "indexed": true,
          "internalType": "address",
          "name": "to",
          "type": "address"
        },
        {
          "indexed": true,
          "internalType": "uint256",
          "name": "tokenId",
          "type": "uint256"
        }
      ],
      "name": "Transfer",
      "type": "event"
    },
    {
      "inputs": [
        {
          "internalType": "address",
          "name": "to",
          "type": "address"
        },
        {
          "internalType": "uint256",
          "name": "tokenId",
          "type": "uint256"
        }
      ],
      "name": "approve",
      "outputs": [],
      "stateMutability": "nonpayable",
      "type": "function"
    },
    {
      "inputs": [
        {
          "internalType": "address",
          "name": "owner",
          "type": "address"
        }
      ],
      "name": "balanceOf",
      "outputs": [
        {
          "internalType": "uint256",
          "name": "",
          "type": "uint256"
        }
      ],
      "stateMutability": "view",
      "type": "function",
      "constant": true
    },
    {
      "inputs": [
        {
          "internalType": "uint256",
          "name": "tokenId",
          "type": "uint256"
        }
      ],
      "name": "getApproved",
      "outputs": [
        {
          "internalType": "address",
          "name": "",
          "type": "address"
        }
      ],
      "stateMutability": "view",
      "type": "function",
      "constant": true
    },
    {
      "inputs": [
        {
          "internalType": "address",
          "name": "owner",
          "type": "address"
        },
        {
          "internalType": "address",
          "name": "operator",
          "type": "address"
        }
      ],
      "name": "isApprovedForAll",
      "outputs": [
        {
          "internalType": "bool",
          "name": "",
          "type": "bool"
        }
      ],
      "stateMutability": "view",
      "type": "function",
      "constant": true
    },
    {
      "inputs": [],
      "name": "name",
      "outputs": [
        {
          "internalType": "string",
          "name": "",
          "type": "string"
        }
      ],
      "stateMutability": "view",
      "type": "function",
      "constant": true
    },
    {
      "inputs": [
        {
          "internalType": "uint256",
          "name": "tokenId",
          "type": "uint256"
        }
      ],
      "name": "ownerOf",
      "outputs": [
        {
          "internalType": "address",
          "name": "",
          "type": "address"
        }
      ],
      "stateMutability": "view",
      "type": "function",
      "constant": true
    },
    {
      "inputs": [
        {
          "internalType": "address",
          "name": "from",
          "type": "address"
        },
        {
          "internalType": "address",
          "name": "to",
          "type": "address"
        },
        {
          "internalType": "uint256",
          "name": "tokenId",
          "type": "uint256"
        }
      ],
      "name": "safeTransferFrom",
      "outputs": [],
      "stateMutability": "nonpayable",
      "type": "function"
    },
    {
      "inputs": [
        {
          "internalType": "address",
          "name": "from",
          "type": "address"
        },
        {
          "internalType": "address",
          "name": "to",
          "type": "address"
        },
        {
          "internalType": "uint256",
          "name": "tokenId",
          "type": "uint256"
        },
        {
          "internalType": "bytes",
          "name": "_data",
          "type": "bytes"
        }
      ],
      "name": "safeTransferFrom",
      "outputs": [],
      "stateMutability": "nonpayable",
      "type": "function"
    },
    {
      "inputs": [
        {
          "internalType": "address",
          "name": "operator",
          "type": "address"
        },
        {
          "internalType": "bool",
          "name": "approved",
          "type": "bool"
        }
      ],
      "name": "setApprovalForAll",
      "outputs": [],
      "stateMutability": "nonpayable",
      "type": "function"
    },
    {
      "inputs": [
        {
          "internalType": "bytes4",
          "name": "interfaceId",
          "type": "bytes4"
        }
      ],
      "name": "supportsInterface",
      "outputs": [
        {
          "internalType": "bool",
          "name": "",
          "type": "bool"
        }
      ],
      "stateMutability": "view",
      "type": "function",
      "constant": true
    },
    {
      "inputs": [],
      "name": "symbol",
      "outputs": [
        {
          "internalType": "string",
          "name": "",
          "type": "string"
        }
      ],
      "stateMutability": "view",
      "type": "function",
      "constant": true
    },
    {
      "inputs": [
        {
          "internalType": "uint256",
          "name": "tokenId",
          "type": "uint256"
        }
      ],
      "name": "tokenURI",
      "outputs": [
        {
          "internalType": "string",
          "name": "",
          "type": "string"
        }
      ],
      "stateMutability": "view",
      "type": "function",
      "constant": true
    },
    {
      "inputs": [
        {
          "internalType": "address",
          "name": "from",
          "type": "address"
        },
        {
          "internalType": "address",
          "name": "to",
          "type": "address"
        },
        {
          "internalType": "uint256",
          "name": "tokenId",
          "type": "uint256"
        }
      ],
      "name": "transferFrom",
      "outputs": [],
      "stateMutability": "nonpayable",
      "type": "function"
    },
    {
      "inputs": [
        {
          "internalType": "address",
          "name": "_Marketaddress",
          "type": "address"
        }
      ],
      "name": "setApproveAddress",
      "outputs": [],
      "stateMutability": "nonpayable",
      "type": "function"
    },
    {
      "inputs": [
        {
          "internalType": "string",
          "name": "_tokenURI",
          "type": "string"
        }
      ],
      "name": "createToken",
      "outputs": [],
      "stateMutability": "nonpayable",
      "type": "function"
    },
    {
      "inputs": [
        {
          "internalType": "uint256",
          "name": "_tokenId",
          "type": "uint256"
        },
        {
          "internalType": "address",
          "name": "_buyer",
          "type": "address"
        }
      ],
      "name": "editList",
      "outputs": [],
      "stateMutability": "nonpayable",
      "type": "function"
    },
    {
      "inputs": [
        {
          "internalType": "uint256",
          "name": "_tokenId",
          "type": "uint256"
        },
        {
          "internalType": "address",
          "name": "_buyer",
          "type": "address"
        }
      ],
      "name": "sendToken",
      "outputs": [],
      "stateMutability": "nonpayable",
      "type": "function"
    },
    {
      "inputs": [
        {
          "internalType": "uint256",
          "name": "_tokenId",
          "type": "uint256"
        },
        {
          "internalType": "uint256",
          "name": "_price",
          "type": "uint256"
        }
      ],
      "name": "salesToken",
      "outputs": [],
      "stateMutability": "nonpayable",
      "type": "function"
    },
    {
      "inputs": [
        {
          "internalType": "uint256",
          "name": "_tokenId",
          "type": "uint256"
        }
      ],
      "name": "getSalesList",
      "outputs": [
        {
          "internalType": "uint256",
          "name": "",
          "type": "uint256"
        },
        {
          "internalType": "uint256",
          "name": "",
          "type": "uint256"
        },
        {
          "internalType": "string",
          "name": "",
          "type": "string"
        },
        {
          "internalType": "address",
          "name": "",
          "type": "address"
        }
      ],
      "stateMutability": "view",
      "type": "function",
      "constant": true
    },
    {
      "inputs": [
        {
          "internalType": "uint256",
          "name": "_tokenId",
          "type": "uint256"
        }
      ],
      "name": "getTokenPrice",
      "outputs": [
        {
          "internalType": "uint256",
          "name": "",
          "type": "uint256"
        }
      ],
      "stateMutability": "view",
      "type": "function",
      "constant": true
    },
    {
      "inputs": [],
      "name": "getCount",
      "outputs": [
        {
          "internalType": "uint256",
          "name": "",
          "type": "uint256"
        }
      ],
      "stateMutability": "view",
      "type": "function",
      "constant": true
    },
    {
      "inputs": [
        {
          "internalType": "uint256",
          "name": "_tokenId",
          "type": "uint256"
        }
      ],
      "name": "getOwnerHistory",
      "outputs": [
        {
          "internalType": "address[]",
          "name": "",
          "type": "address[]"
        }
      ],
      "stateMutability": "view",
      "type": "function",
      "constant": true
    },
    {
      "inputs": [
        {
          "internalType": "address",
          "name": "_account",
          "type": "address"
        }
      ],
      "name": "getMyTokenList",
      "outputs": [
        {
          "internalType": "uint256[]",
          "name": "",
          "type": "uint256[]"
        }
      ],
      "stateMutability": "view",
      "type": "function",
      "constant": true
    },
    {
      "inputs": [],
      "name": "getContractBalance",
      "outputs": [
        {
          "internalType": "uint256",
          "name": "",
          "type": "uint256"
        }
      ],
      "stateMutability": "view",
      "type": "function",
      "constant": true
    }
  ],
  "bytecode": "0x60806040523480156200001157600080fd5b506040518060400160405280601481526020017f42696e616e6365536d617274436861696e4e46540000000000000000000000008152506040518060400160405280600381526020017f4246540000000000000000000000000000000000000000000000000000000000815250816000908051906020019062000096929190620000b8565b508060019080519060200190620000af929190620000b8565b505050620001cd565b828054620000c69062000168565b90600052602060002090601f016020900481019282620000ea576000855562000136565b82601f106200010557805160ff191683800117855562000136565b8280016001018555821562000136579182015b828111156200013557825182559160200191906001019062000118565b5b50905062000145919062000149565b5090565b5b80821115620001645760008160009055506001016200014a565b5090565b600060028204905060018216806200018157607f821691505b602082108114156200019857620001976200019e565b5b50919050565b7f4e487b7100000000000000000000000000000000000000000000000000000000600052602260045260246000fd5b613c2f80620001dd6000396000f3fe608060405234801561001057600080fd5b50600436106101585760003560e01c806370a08231116100c3578063b88d4fde1161007c578063b88d4fde146103ec578063c457fb3714610408578063c87b56dd14610438578063e985e9c514610468578063f1dfd2a614610498578063fe3730be146104b457610158565b806370a0823114610318578063723785541461034857806395d89b4114610364578063a22cb46514610382578063a87d942c1461039e578063aae597e2146103bc57610158565b80632fe1bccd116101155780632fe1bccd1461024357806342842e0e1461025f57806345576f941461027b5780636352211e146102975780636a5f7afb146102c75780636f9fb98a146102fa57610158565b806301ffc9a71461015d57806306fdde031461018d578063081812fc146101ab578063095ea7b3146101db57806314ae108d146101f757806323b872dd14610227575b600080fd5b61017760048036038101906101729190612881565b6104d0565b6040516101849190613409565b60405180910390f35b6101956105b2565b6040516101a29190613424565b60405180910390f35b6101c560048036038101906101c09190612914565b610644565b6040516101d2919061335e565b60405180910390f35b6101f560048036038101906101f09190612845565b6106c9565b005b610211600480360381019061020c9190612914565b6107e1565b60405161021e91906133c5565b60405180910390f35b610241600480360381019061023c919061273f565b6108d8565b005b61025d6004803603810190610258919061293d565b610938565b005b6102796004803603810190610274919061273f565b610cb3565b005b610295600480360381019061029091906128d3565b610cd3565b005b6102b160048036038101906102ac9190612914565b610e80565b6040516102be919061335e565b60405180910390f35b6102e160048036038101906102dc9190612914565b610f32565b6040516102f19493929190613721565b60405180910390f35b61030261101a565b60405161030f9190613706565b60405180910390f35b610332600480360381019061032d91906126da565b611022565b60405161033f9190613706565b60405180910390f35b610362600480360381019061035d919061293d565b6110da565b005b61036c61110e565b6040516103799190613424565b60405180910390f35b61039c60048036038101906103979190612809565b6111a0565b005b6103a66111b6565b6040516103b39190613706565b60405180910390f35b6103d660048036038101906103d191906126da565b6111c7565b6040516103e391906133e7565b60405180910390f35b6104066004803603810190610401919061278e565b61125e565b005b610422600480360381019061041d9190612914565b6112c0565b60405161042f9190613706565b60405180910390f35b610452600480360381019061044d9190612914565b611388565b60405161045f9190613424565b60405180910390f35b610482600480360381019061047d9190612703565b6114da565b60405161048f9190613409565b60405180910390f35b6104b260048036038101906104ad9190612979565b61156e565b005b6104ce60048036038101906104c991906126da565b6116f8565b005b60007f80ac58cd000000000000000000000000000000000000000000000000000000007bffffffffffffffffffffffffffffffffffffffffffffffffffffffff1916827bffffffffffffffffffffffffffffffffffffffffffffffffffffffff1916148061059b57507f5b5e139f000000000000000000000000000000000000000000000000000000007bffffffffffffffffffffffffffffffffffffffffffffffffffffffff1916827bffffffffffffffffffffffffffffffffffffffffffffffffffffffff1916145b806105ab57506105aa8261173c565b5b9050919050565b6060600080546105c190613a24565b80601f01602080910402602001604051908101604052809291908181526020018280546105ed90613a24565b801561063a5780601f1061060f5761010080835404028352916020019161063a565b820191906000526020600020905b81548152906001019060200180831161061d57829003601f168201915b5050505050905090565b600061064f826117a6565b61068e576040517f08c379a000000000000000000000000000000000000000000000000000000000815260040161068590613626565b60405180910390fd5b6004600083815260200190815260200160002060009054906101000a900473ffffffffffffffffffffffffffffffffffffffff169050919050565b60006106d482610e80565b90508073ffffffffffffffffffffffffffffffffffffffff168373ffffffffffffffffffffffffffffffffffffffff161415610745576040517f08c379a000000000000000000000000000000000000000000000000000000000815260040161073c90613686565b60405180910390fd5b8073ffffffffffffffffffffffffffffffffffffffff16610764611812565b73ffffffffffffffffffffffffffffffffffffffff16148061079357506107928161078d611812565b6114da565b5b6107d2576040517f08c379a00000000000000000000000000000000000000000000000000000000081526004016107c990613526565b60405180910390fd5b6107dc838361181a565b505050565b60606000821180156107fa57506107f66111b6565b8211155b610839576040517f08c379a0000000000000000000000000000000000000000000000000000000008152600401610830906135a6565b60405180910390fd5b600960008381526020019081526020016000208054806020026020016040519081016040528092919081815260200182805480156108cc57602002820191906000526020600020905b8160009054906101000a900473ffffffffffffffffffffffffffffffffffffffff1673ffffffffffffffffffffffffffffffffffffffff1681526020019060010190808311610882575b50505050509050919050565b6108e96108e3611812565b826118d3565b610928576040517f08c379a000000000000000000000000000000000000000000000000000000000815260040161091f906136c6565b60405180910390fd5b6109338383836119b1565b505050565b600061094383610e80565b90506000600a60008373ffffffffffffffffffffffffffffffffffffffff1673ffffffffffffffffffffffffffffffffffffffff16815260200190815260200160002080549050905060005b81811015610b475784600a60008573ffffffffffffffffffffffffffffffffffffffff1673ffffffffffffffffffffffffffffffffffffffff1681526020019081526020016000208281548110610a0f577f4e487b7100000000000000000000000000000000000000000000000000000000600052603260045260246000fd5b90600052602060002001541415610b3457600a60008473ffffffffffffffffffffffffffffffffffffffff1673ffffffffffffffffffffffffffffffffffffffff168152602001908152602001600020600183610a6c919061393a565b81548110610aa3577f4e487b7100000000000000000000000000000000000000000000000000000000600052603260045260246000fd5b9060005260206000200154600a60008573ffffffffffffffffffffffffffffffffffffffff1673ffffffffffffffffffffffffffffffffffffffff1681526020019081526020016000208281548110610b25577f4e487b7100000000000000000000000000000000000000000000000000000000600052603260045260246000fd5b90600052602060002001819055505b8080610b3f90613a56565b91505061098f565b50600a60008373ffffffffffffffffffffffffffffffffffffffff1673ffffffffffffffffffffffffffffffffffffffff168152602001908152602001600020805480610bbd577f4e487b7100000000000000000000000000000000000000000000000000000000600052603160045260246000fd5b6001900381819060005260206000200160009055905560096000858152602001908152602001600020839080600181540180825580915050600190039060005260206000200160009091909190916101000a81548173ffffffffffffffffffffffffffffffffffffffff021916908373ffffffffffffffffffffffffffffffffffffffff160217905550600a60008473ffffffffffffffffffffffffffffffffffffffff1673ffffffffffffffffffffffffffffffffffffffff16815260200190815260200160002084908060018154018082558091505060019003906000526020600020016000909190919091505550505050565b610cce8383836040518060200160405280600081525061125e565b505050565b600881604051610ce39190613323565b908152602001604051809103902060009054906101000a900460ff1615610d3f576040517f08c379a0000000000000000000000000000000000000000000000000000000008152600401610d36906136e6565b60405180910390fd5b610d496007611c0d565b6000610d556007611c23565b9050610d613382611c31565b610d6b8183611c4f565b60096000828152602001908152602001600020339080600181540180825580915050600190039060005260206000200160009091909190916101000a81548173ffffffffffffffffffffffffffffffffffffffff021916908373ffffffffffffffffffffffffffffffffffffffff160217905550600a60003373ffffffffffffffffffffffffffffffffffffffff1673ffffffffffffffffffffffffffffffffffffffff1681526020019081526020016000208190806001815401808255809150506001900390600052602060002001600090919091909150556001600883604051610e579190613323565b908152602001604051809103902060006101000a81548160ff0219169083151502179055505050565b6000806002600084815260200190815260200160002060009054906101000a900473ffffffffffffffffffffffffffffffffffffffff169050600073ffffffffffffffffffffffffffffffffffffffff168173ffffffffffffffffffffffffffffffffffffffff161415610f29576040517f08c379a0000000000000000000000000000000000000000000000000000000008152600401610f2090613566565b60405180910390fd5b80915050919050565b600080606060008085118015610f4f5750610f4b6111b6565b8511155b610f8e576040517f08c379a0000000000000000000000000000000000000000000000000000000008152600401610f85906135a6565b60405180910390fd5b6000600b60008781526020019081526020016000205411610fe4576040517f08c379a0000000000000000000000000000000000000000000000000000000008152600401610fdb906136a6565b60405180910390fd5b84600b60008781526020019081526020016000205461100287611388565b61100b88610e80565b93509350935093509193509193565b600047905090565b60008073ffffffffffffffffffffffffffffffffffffffff168273ffffffffffffffffffffffffffffffffffffffff161415611093576040517f08c379a000000000000000000000000000000000000000000000000000000000815260040161108a90613546565b60405180910390fd5b600360008373ffffffffffffffffffffffffffffffffffffffff1673ffffffffffffffffffffffffffffffffffffffff168152602001908152602001600020549050919050565b60006110e583610e80565b90506110f2818385610cb3565b600b600084815260200190815260200160002060009055505050565b60606001805461111d90613a24565b80601f016020809104026020016040519081016040528092919081815260200182805461114990613a24565b80156111965780601f1061116b57610100808354040283529160200191611196565b820191906000526020600020905b81548152906001019060200180831161117957829003601f168201915b5050505050905090565b6111b26111ab611812565b8383611cc3565b5050565b60006111c26007611c23565b905090565b6060600a60008373ffffffffffffffffffffffffffffffffffffffff1673ffffffffffffffffffffffffffffffffffffffff16815260200190815260200160002080548060200260200160405190810160405280929190818152602001828054801561125257602002820191906000526020600020905b81548152602001906001019080831161123e575b50505050509050919050565b61126f611269611812565b836118d3565b6112ae576040517f08c379a00000000000000000000000000000000000000000000000000000000081526004016112a5906136c6565b60405180910390fd5b6112ba84848484611e30565b50505050565b600080821180156112d857506112d46111b6565b8211155b611317576040517f08c379a000000000000000000000000000000000000000000000000000000000815260040161130e906135a6565b60405180910390fd5b6000600b6000848152602001908152602001600020541161136d576040517f08c379a0000000000000000000000000000000000000000000000000000000008152600401611364906136a6565b60405180910390fd5b600b6000838152602001908152602001600020549050919050565b6060611393826117a6565b6113d2576040517f08c379a00000000000000000000000000000000000000000000000000000000081526004016113c990613606565b60405180910390fd5b60006006600084815260200190815260200160002080546113f290613a24565b80601f016020809104026020016040519081016040528092919081815260200182805461141e90613a24565b801561146b5780601f106114405761010080835404028352916020019161146b565b820191906000526020600020905b81548152906001019060200180831161144e57829003601f168201915b50505050509050600061147c611e8c565b90506000815114156114925781925050506114d5565b6000825111156114c75780826040516020016114af92919061333a565b604051602081830303815290604052925050506114d5565b6114d084611ea3565b925050505b919050565b6000600560008473ffffffffffffffffffffffffffffffffffffffff1673ffffffffffffffffffffffffffffffffffffffff16815260200190815260200160002060008373ffffffffffffffffffffffffffffffffffffffff1673ffffffffffffffffffffffffffffffffffffffff16815260200190815260200160002060009054906101000a900460ff16905092915050565b60008211801561158557506115816111b6565b8211155b6115c4576040517f08c379a00000000000000000000000000000000000000000000000000000000081526004016115bb906135a6565b60405180910390fd5b6115cd82610e80565b73ffffffffffffffffffffffffffffffffffffffff163373ffffffffffffffffffffffffffffffffffffffff161461163a576040517f08c379a000000000000000000000000000000000000000000000000000000000815260040161163190613486565b60405180910390fd5b6000600b60008481526020019081526020016000205414611690576040517f08c379a000000000000000000000000000000000000000000000000000000000815260040161168790613506565b60405180910390fd5b600081116116d3576040517f08c379a00000000000000000000000000000000000000000000000000000000081526004016116ca906135e6565b60405180910390fd5b6116dc82611f4a565b80600b6000848152602001908152602001600020819055505050565b80600c60006101000a81548173ffffffffffffffffffffffffffffffffffffffff021916908373ffffffffffffffffffffffffffffffffffffffff16021790555050565b60007f01ffc9a7000000000000000000000000000000000000000000000000000000007bffffffffffffffffffffffffffffffffffffffffffffffffffffffff1916827bffffffffffffffffffffffffffffffffffffffffffffffffffffffff1916149050919050565b60008073ffffffffffffffffffffffffffffffffffffffff166002600084815260200190815260200160002060009054906101000a900473ffffffffffffffffffffffffffffffffffffffff1673ffffffffffffffffffffffffffffffffffffffff1614159050919050565b600033905090565b816004600083815260200190815260200160002060006101000a81548173ffffffffffffffffffffffffffffffffffffffff021916908373ffffffffffffffffffffffffffffffffffffffff160217905550808273ffffffffffffffffffffffffffffffffffffffff1661188d83610e80565b73ffffffffffffffffffffffffffffffffffffffff167f8c5be1e5ebec7d5bd14f71427d1e84f3dd0314c0f7b2291e5b200ac8c7c3b92560405160405180910390a45050565b60006118de826117a6565b61191d576040517f08c379a0000000000000000000000000000000000000000000000000000000008152600401611914906134e6565b60405180910390fd5b600061192883610e80565b90508073ffffffffffffffffffffffffffffffffffffffff168473ffffffffffffffffffffffffffffffffffffffff16148061199757508373ffffffffffffffffffffffffffffffffffffffff1661197f84610644565b73ffffffffffffffffffffffffffffffffffffffff16145b806119a857506119a781856114da565b5b91505092915050565b8273ffffffffffffffffffffffffffffffffffffffff166119d182610e80565b73ffffffffffffffffffffffffffffffffffffffff1614611a27576040517f08c379a0000000000000000000000000000000000000000000000000000000008152600401611a1e90613646565b60405180910390fd5b600073ffffffffffffffffffffffffffffffffffffffff168273ffffffffffffffffffffffffffffffffffffffff161415611a97576040517f08c379a0000000000000000000000000000000000000000000000000000000008152600401611a8e906134a6565b60405180910390fd5b611aa2838383611f79565b611aad60008261181a565b6001600360008573ffffffffffffffffffffffffffffffffffffffff1673ffffffffffffffffffffffffffffffffffffffff1681526020019081526020016000206000828254611afd919061393a565b925050819055506001600360008473ffffffffffffffffffffffffffffffffffffffff1673ffffffffffffffffffffffffffffffffffffffff1681526020019081526020016000206000828254611b5491906138b3565b92505081905550816002600083815260200190815260200160002060006101000a81548173ffffffffffffffffffffffffffffffffffffffff021916908373ffffffffffffffffffffffffffffffffffffffff160217905550808273ffffffffffffffffffffffffffffffffffffffff168473ffffffffffffffffffffffffffffffffffffffff167fddf252ad1be2c89b69c2b068fc378daa952ba7f163c4a11628f55a4df523b3ef60405160405180910390a4505050565b6001816000016000828254019250508190555050565b600081600001549050919050565b611c4b828260405180602001604052806000815250611f7e565b5050565b611c58826117a6565b611c97576040517f08c379a0000000000000000000000000000000000000000000000000000000008152600401611c8e90613586565b60405180910390fd5b80600660008481526020019081526020016000209080519060200190611cbe9291906124fe565b505050565b8173ffffffffffffffffffffffffffffffffffffffff168373ffffffffffffffffffffffffffffffffffffffff161415611d32576040517f08c379a0000000000000000000000000000000000000000000000000000000008152600401611d29906134c6565b60405180910390fd5b80600560008573ffffffffffffffffffffffffffffffffffffffff1673ffffffffffffffffffffffffffffffffffffffff16815260200190815260200160002060008473ffffffffffffffffffffffffffffffffffffffff1673ffffffffffffffffffffffffffffffffffffffff16815260200190815260200160002060006101000a81548160ff0219169083151502179055508173ffffffffffffffffffffffffffffffffffffffff168373ffffffffffffffffffffffffffffffffffffffff167f17307eab39ab6107e8899845ad3d59bd9653f200f220920489ca2b5937696c3183604051611e239190613409565b60405180910390a3505050565b611e3b8484846119b1565b611e4784848484611fd9565b611e86576040517f08c379a0000000000000000000000000000000000000000000000000000000008152600401611e7d90613446565b60405180910390fd5b50505050565b606060405180602001604052806000815250905090565b6060611eae826117a6565b611eed576040517f08c379a0000000000000000000000000000000000000000000000000000000008152600401611ee490613666565b60405180910390fd5b6000611ef7611e8c565b90506000815111611f175760405180602001604052806000815250611f42565b80611f2184612170565b604051602001611f3292919061333a565b6040516020818303038152906040525b915050919050565b611f76600c60009054906101000a900473ffffffffffffffffffffffffffffffffffffffff16826106c9565b50565b505050565b611f88838361231d565b611f956000848484611fd9565b611fd4576040517f08c379a0000000000000000000000000000000000000000000000000000000008152600401611fcb90613446565b60405180910390fd5b505050565b6000611ffa8473ffffffffffffffffffffffffffffffffffffffff166124eb565b15612163578373ffffffffffffffffffffffffffffffffffffffff1663150b7a02612023611812565b8786866040518563ffffffff1660e01b81526004016120459493929190613379565b602060405180830381600087803b15801561205f57600080fd5b505af192505050801561209057506040513d601f19601f8201168201806040525081019061208d91906128aa565b60015b612113573d80600081146120c0576040519150601f19603f3d011682016040523d82523d6000602084013e6120c5565b606091505b5060008151141561210b576040517f08c379a000000000000000000000000000000000000000000000000000000000815260040161210290613446565b60405180910390fd5b805181602001fd5b63150b7a0260e01b7bffffffffffffffffffffffffffffffffffffffffffffffffffffffff1916817bffffffffffffffffffffffffffffffffffffffffffffffffffffffff191614915050612168565b600190505b949350505050565b606060008214156121b8576040518060400160405280600181526020017f30000000000000000000000000000000000000000000000000000000000000008152509050612318565b600082905060005b600082146121ea5780806121d390613a56565b915050600a826121e39190613909565b91506121c0565b60008167ffffffffffffffff81111561222c577f4e487b7100000000000000000000000000000000000000000000000000000000600052604160045260246000fd5b6040519080825280601f01601f19166020018201604052801561225e5781602001600182028036833780820191505090505b5090505b6000851461231157600182612277919061393a565b9150600a856122869190613a9f565b603061229291906138b3565b60f81b8183815181106122ce577f4e487b7100000000000000000000000000000000000000000000000000000000600052603260045260246000fd5b60200101907effffffffffffffffffffffffffffffffffffffffffffffffffffffffffffff1916908160001a905350600a8561230a9190613909565b9450612262565b8093505050505b919050565b600073ffffffffffffffffffffffffffffffffffffffff168273ffffffffffffffffffffffffffffffffffffffff16141561238d576040517f08c379a0000000000000000000000000000000000000000000000000000000008152600401612384906135c6565b60405180910390fd5b612396816117a6565b156123d6576040517f08c379a00000000000000000000000000000000000000000000000000000000081526004016123cd90613466565b60405180910390fd5b6123e260008383611f79565b6001600360008473ffffffffffffffffffffffffffffffffffffffff1673ffffffffffffffffffffffffffffffffffffffff168152602001908152602001600020600082825461243291906138b3565b92505081905550816002600083815260200190815260200160002060006101000a81548173ffffffffffffffffffffffffffffffffffffffff021916908373ffffffffffffffffffffffffffffffffffffffff160217905550808273ffffffffffffffffffffffffffffffffffffffff16600073ffffffffffffffffffffffffffffffffffffffff167fddf252ad1be2c89b69c2b068fc378daa952ba7f163c4a11628f55a4df523b3ef60405160405180910390a45050565b600080823b905060008111915050919050565b82805461250a90613a24565b90600052602060002090601f01602090048101928261252c5760008555612573565b82601f1061254557805160ff1916838001178555612573565b82800160010185558215612573579182015b82811115612572578251825591602001919060010190612557565b5b5090506125809190612584565b5090565b5b8082111561259d576000816000905550600101612585565b5090565b60006125b46125af8461379e565b61376d565b9050828152602081018484840111156125cc57600080fd5b6125d78482856139e2565b509392505050565b60006125f26125ed846137ce565b61376d565b90508281526020810184848401111561260a57600080fd5b6126158482856139e2565b509392505050565b60008135905061262c81613b9d565b92915050565b60008135905061264181613bb4565b92915050565b60008135905061265681613bcb565b92915050565b60008151905061266b81613bcb565b92915050565b600082601f83011261268257600080fd5b81356126928482602086016125a1565b91505092915050565b600082601f8301126126ac57600080fd5b81356126bc8482602086016125df565b91505092915050565b6000813590506126d481613be2565b92915050565b6000602082840312156126ec57600080fd5b60006126fa8482850161261d565b91505092915050565b6000806040838503121561271657600080fd5b60006127248582860161261d565b92505060206127358582860161261d565b9150509250929050565b60008060006060848603121561275457600080fd5b60006127628682870161261d565b93505060206127738682870161261d565b9250506040612784868287016126c5565b9150509250925092565b600080600080608085870312156127a457600080fd5b60006127b28782880161261d565b94505060206127c38782880161261d565b93505060406127d4878288016126c5565b925050606085013567ffffffffffffffff8111156127f157600080fd5b6127fd87828801612671565b91505092959194509250565b6000806040838503121561281c57600080fd5b600061282a8582860161261d565b925050602061283b85828601612632565b9150509250929050565b6000806040838503121561285857600080fd5b60006128668582860161261d565b9250506020612877858286016126c5565b9150509250929050565b60006020828403121561289357600080fd5b60006128a184828501612647565b91505092915050565b6000602082840312156128bc57600080fd5b60006128ca8482850161265c565b91505092915050565b6000602082840312156128e557600080fd5b600082013567ffffffffffffffff8111156128ff57600080fd5b61290b8482850161269b565b91505092915050565b60006020828403121561292657600080fd5b6000612934848285016126c5565b91505092915050565b6000806040838503121561295057600080fd5b600061295e858286016126c5565b925050602061296f8582860161261d565b9150509250929050565b6000806040838503121561298c57600080fd5b600061299a858286016126c5565b92505060206129ab858286016126c5565b9150509250929050565b60006129c183836129e5565b60208301905092915050565b60006129d98383613305565b60208301905092915050565b6129ee8161396e565b82525050565b6129fd8161396e565b82525050565b6000612a0e8261381e565b612a188185613864565b9350612a23836137fe565b8060005b83811015612a54578151612a3b88826129b5565b9750612a468361384a565b925050600181019050612a27565b5085935050505092915050565b6000612a6c82613829565b612a768185613875565b9350612a818361380e565b8060005b83811015612ab2578151612a9988826129cd565b9750612aa483613857565b925050600181019050612a85565b5085935050505092915050565b612ac881613980565b82525050565b6000612ad982613834565b612ae38185613886565b9350612af38185602086016139f1565b612afc81613b8c565b840191505092915050565b6000612b128261383f565b612b1c8185613897565b9350612b2c8185602086016139f1565b612b3581613b8c565b840191505092915050565b6000612b4b8261383f565b612b5581856138a8565b9350612b658185602086016139f1565b80840191505092915050565b6000612b7e603283613897565b91507f4552433732313a207472616e7366657220746f206e6f6e20455243373231526560008301527f63656976657220696d706c656d656e74657200000000000000000000000000006020830152604082019050919050565b6000612be4601c83613897565b91507f4552433732313a20746f6b656e20616c7265616479206d696e746564000000006000830152602082019050919050565b6000612c24601e83613897565b91507f596f7520617265206e6f74206f776e6572206f662074686520746f6b656e00006000830152602082019050919050565b6000612c64602483613897565b91507f4552433732313a207472616e7366657220746f20746865207a65726f2061646460008301527f72657373000000000000000000000000000000000000000000000000000000006020830152604082019050919050565b6000612cca601983613897565b91507f4552433732313a20617070726f766520746f2063616c6c6572000000000000006000830152602082019050919050565b6000612d0a602c83613897565b91507f4552433732313a206f70657261746f7220717565727920666f72206e6f6e657860008301527f697374656e7420746f6b656e00000000000000000000000000000000000000006020830152604082019050919050565b6000612d70602583613897565b91507f54686520746f6b656e20616c72656164792065786973747320696e2073616c6560008301527f734c6973740000000000000000000000000000000000000000000000000000006020830152604082019050919050565b6000612dd6603883613897565b91507f4552433732313a20617070726f76652063616c6c6572206973206e6f74206f7760008301527f6e6572206e6f7220617070726f76656420666f7220616c6c00000000000000006020830152604082019050919050565b6000612e3c602a83613897565b91507f4552433732313a2062616c616e636520717565727920666f7220746865207a6560008301527f726f2061646472657373000000000000000000000000000000000000000000006020830152604082019050919050565b6000612ea2602983613897565b91507f4552433732313a206f776e657220717565727920666f72206e6f6e657869737460008301527f656e7420746f6b656e00000000000000000000000000000000000000000000006020830152604082019050919050565b6000612f08602e83613897565b91507f45524337323155524953746f726167653a2055524920736574206f66206e6f6e60008301527f6578697374656e7420746f6b656e0000000000000000000000000000000000006020830152604082019050919050565b6000612f6e601b83613897565b91507f446f6573206e6f74206578697374732074686520746f6b656e496400000000006000830152602082019050919050565b6000612fae602083613897565b91507f4552433732313a206d696e7420746f20746865207a65726f20616464726573736000830152602082019050919050565b6000612fee601d83613897565b91507f54686520707269636520697320686967686572207468616e207a65726f0000006000830152602082019050919050565b600061302e603183613897565b91507f45524337323155524953746f726167653a2055524920717565727920666f722060008301527f6e6f6e6578697374656e7420746f6b656e0000000000000000000000000000006020830152604082019050919050565b6000613094602c83613897565b91507f4552433732313a20617070726f76656420717565727920666f72206e6f6e657860008301527f697374656e7420746f6b656e00000000000000000000000000000000000000006020830152604082019050919050565b60006130fa602983613897565b91507f4552433732313a207472616e73666572206f6620746f6b656e2074686174206960008301527f73206e6f74206f776e00000000000000000000000000000000000000000000006020830152604082019050919050565b6000613160602f83613897565b91507f4552433732314d657461646174613a2055524920717565727920666f72206e6f60008301527f6e6578697374656e7420746f6b656e00000000000000000000000000000000006020830152604082019050919050565b60006131c6602183613897565b91507f4552433732313a20617070726f76616c20746f2063757272656e74206f776e6560008301527f72000000000000000000000000000000000000000000000000000000000000006020830152604082019050919050565b600061322c601883613897565b91507f446f6573206e6f742073616c65732074686520746f6b656e00000000000000006000830152602082019050919050565b600061326c603183613897565b91507f4552433732313a207472616e736665722063616c6c6572206973206e6f74206f60008301527f776e6572206e6f7220617070726f7665640000000000000000000000000000006020830152604082019050919050565b60006132d2601783613897565b91507f5468652055524920616c726561647920657873697374730000000000000000006000830152602082019050919050565b61330e816139d8565b82525050565b61331d816139d8565b82525050565b600061332f8284612b40565b915081905092915050565b60006133468285612b40565b91506133528284612b40565b91508190509392505050565b600060208201905061337360008301846129f4565b92915050565b600060808201905061338e60008301876129f4565b61339b60208301866129f4565b6133a86040830185613314565b81810360608301526133ba8184612ace565b905095945050505050565b600060208201905081810360008301526133df8184612a03565b905092915050565b600060208201905081810360008301526134018184612a61565b905092915050565b600060208201905061341e6000830184612abf565b92915050565b6000602082019050818103600083015261343e8184612b07565b905092915050565b6000602082019050818103600083015261345f81612b71565b9050919050565b6000602082019050818103600083015261347f81612bd7565b9050919050565b6000602082019050818103600083015261349f81612c17565b9050919050565b600060208201905081810360008301526134bf81612c57565b9050919050565b600060208201905081810360008301526134df81612cbd565b9050919050565b600060208201905081810360008301526134ff81612cfd565b9050919050565b6000602082019050818103600083015261351f81612d63565b9050919050565b6000602082019050818103600083015261353f81612dc9565b9050919050565b6000602082019050818103600083015261355f81612e2f565b9050919050565b6000602082019050818103600083015261357f81612e95565b9050919050565b6000602082019050818103600083015261359f81612efb565b9050919050565b600060208201905081810360008301526135bf81612f61565b9050919050565b600060208201905081810360008301526135df81612fa1565b9050919050565b600060208201905081810360008301526135ff81612fe1565b9050919050565b6000602082019050818103600083015261361f81613021565b9050919050565b6000602082019050818103600083015261363f81613087565b9050919050565b6000602082019050818103600083015261365f816130ed565b9050919050565b6000602082019050818103600083015261367f81613153565b9050919050565b6000602082019050818103600083015261369f816131b9565b9050919050565b600060208201905081810360008301526136bf8161321f565b9050919050565b600060208201905081810360008301526136df8161325f565b9050919050565b600060208201905081810360008301526136ff816132c5565b9050919050565b600060208201905061371b6000830184613314565b92915050565b60006080820190506137366000830187613314565b6137436020830186613314565b81810360408301526137558185612b07565b905061376460608301846129f4565b95945050505050565b6000604051905081810181811067ffffffffffffffff8211171561379457613793613b5d565b5b8060405250919050565b600067ffffffffffffffff8211156137b9576137b8613b5d565b5b601f19601f8301169050602081019050919050565b600067ffffffffffffffff8211156137e9576137e8613b5d565b5b601f19601f8301169050602081019050919050565b6000819050602082019050919050565b6000819050602082019050919050565b600081519050919050565b600081519050919050565b600081519050919050565b600081519050919050565b6000602082019050919050565b6000602082019050919050565b600082825260208201905092915050565b600082825260208201905092915050565b600082825260208201905092915050565b600082825260208201905092915050565b600081905092915050565b60006138be826139d8565b91506138c9836139d8565b9250827fffffffffffffffffffffffffffffffffffffffffffffffffffffffffffffffff038211156138fe576138fd613ad0565b5b828201905092915050565b6000613914826139d8565b915061391f836139d8565b92508261392f5761392e613aff565b5b828204905092915050565b6000613945826139d8565b9150613950836139d8565b92508282101561396357613962613ad0565b5b828203905092915050565b6000613979826139b8565b9050919050565b60008115159050919050565b60007fffffffff0000000000000000000000000000000000000000000000000000000082169050919050565b600073ffffffffffffffffffffffffffffffffffffffff82169050919050565b6000819050919050565b82818337600083830152505050565b60005b83811015613a0f5780820151818401526020810190506139f4565b83811115613a1e576000848401525b50505050565b60006002820490506001821680613a3c57607f821691505b60208210811415613a5057613a4f613b2e565b5b50919050565b6000613a61826139d8565b91507fffffffffffffffffffffffffffffffffffffffffffffffffffffffffffffffff821415613a9457613a93613ad0565b5b600182019050919050565b6000613aaa826139d8565b9150613ab5836139d8565b925082613ac557613ac4613aff565b5b828206905092915050565b7f4e487b7100000000000000000000000000000000000000000000000000000000600052601160045260246000fd5b7f4e487b7100000000000000000000000000000000000000000000000000000000600052601260045260246000fd5b7f4e487b7100000000000000000000000000000000000000000000000000000000600052602260045260246000fd5b7f4e487b7100000000000000000000000000000000000000000000000000000000600052604160045260246000fd5b6000601f19601f8301169050919050565b613ba68161396e565b8114613bb157600080fd5b50565b613bbd81613980565b8114613bc857600080fd5b50565b613bd48161398c565b8114613bdf57600080fd5b50565b613beb816139d8565b8114613bf657600080fd5b5056fea264697066735822122068d72414b80a8b7ee68c9a830896aff62a32687c0e498bf1993003311fe3bb6364736f6c63430008000033",
  "immutableReferences": {},
  "source": "// SPDX-License-Identifier: MIT\npragma solidity ^0.8.0;\n\nimport \"@openzeppelin/contracts/token/ERC721/extensions/ERC721URIStorage.sol\";\nimport \"@openzeppelin/contracts/utils/Counters.sol\";\n\ncontract BscNFT is ERC721URIStorage {\n    using Counters for Counters.Counter;\n    Counters.Counter private _tokenIds;\n    \n    constructor() ERC721(\"BinanceSmartChainNFT\", \"BFT\") {}\n\n    mapping(string => bool) private existsURI; // tokenURI => true or false\n    mapping(uint256 => address[]) private ownerHistory; // tokenId => ownerHistory\n    mapping(address => uint256[]) private myTokenList; // some account => tokenIds owned by the account\n    mapping(uint256 => uint256) private salesList; // tokenId => price\n\n    address private Marketaddress; // Market address\n\n    // approve the Market address\n    function setApproveAddress(address _Marketaddress) public {\n        Marketaddress = _Marketaddress;\n    }\n\n    function setApprove(uint256 _tokenId) private {\n        approve(Marketaddress, _tokenId);\n    }\n\n    // create token\n    function createToken(string memory _tokenURI) public {\n        require(!existsURI[_tokenURI], \"The URI already exsists\");\n\n        _tokenIds.increment();\n        uint256 newTokenId = _tokenIds.current();\n\n        _safeMint(msg.sender, newTokenId);\n        _setTokenURI(newTokenId, _tokenURI);\n\n        ownerHistory[newTokenId].push(msg.sender);\n        myTokenList[msg.sender].push(newTokenId);\n        existsURI[_tokenURI] = true;\n    }\n\n    // edit myTokenList and ownerHistory\n    function editList(uint256 _tokenId, address _buyer) public {\n        address seller = ownerOf(_tokenId);\n        uint256 len = myTokenList[seller].length;\n\n        for (uint i = 0; i < len; i++) {\n            if (myTokenList[seller][i] == _tokenId) {\n                myTokenList[seller][i] = myTokenList[seller][len-1];\n            }\n        }\n        myTokenList[seller].pop();\n        \n        ownerHistory[_tokenId].push(_buyer);\n        myTokenList[_buyer].push(_tokenId);\n    }\n\n    // send the token from seller to buyer\n    function sendToken(uint256 _tokenId, address _buyer) public {\n        address seller = ownerOf(_tokenId);\n        safeTransferFrom(seller, _buyer, _tokenId);\n        delete salesList[_tokenId];\n    }\n    \n    // put the token on sales list\n    function salesToken(uint256 _tokenId, uint256 _price) public {\n        require(_tokenId > 0 && _tokenId <= getCount(), \"Does not exists the tokenId\");\n        require(msg.sender == ownerOf(_tokenId), \"You are not owner of the token\");\n        require(salesList[_tokenId] == 0, \"The token already exists in salesList\");\n        require(_price > 0, \"The price is higher than zero\");\n\n        setApprove(_tokenId);\n        salesList[_tokenId] = _price;\n    }\n\n    // get list of token on sale\n    function getSalesList(uint256 _tokenId) public view returns(uint256, uint256, string memory, address) {\n        require(_tokenId > 0 && _tokenId <= getCount(), \"Does not exists the tokenId\");\n        require(salesList[_tokenId] > 0, \"Does not sales the token\");\n\n        return (\n            _tokenId,\n            salesList[_tokenId],\n            tokenURI(_tokenId),\n            ownerOf(_tokenId)\n        );\n    }\n\n    // get token price\n    function getTokenPrice(uint256 _tokenId) public view returns(uint256) {\n        require(_tokenId > 0 && _tokenId <= getCount(), \"Does not exists the tokenId\");\n        require(salesList[_tokenId] > 0, \"Does not sales the token\");\n        return salesList[_tokenId];\n    }\n\n    // token Counter\n    function getCount() public view returns(uint256) {\n        return _tokenIds.current();\n    }\n\n    // owner history of the token\n    function getOwnerHistory(uint256 _tokenId) public view returns(address[] memory) {\n        require(_tokenId > 0 && _tokenId <= getCount(), \"Does not exists the tokenId\");\n        return ownerHistory[_tokenId];\n    }\n\n    // my token list\n    function getMyTokenList(address _account) public view returns(uint256[] memory) {\n        return myTokenList[_account];\n    }\n\n    // get contract balance\n    function getContractBalance() public view returns(uint256) {\n        return address(this).balance;\n    }\n}",
  "sourcePath": "/Users/yua83/Practice/BSCnft/solidity/contracts/BscNFT.sol",
  "compiler": {
    "name": "solc",
    "version": "0.8.0+commit.c7dfd78e.Emscripten.clang"
  },
  "schemaVersion": "3.4.3",
  "updatedAt": "2021-12-16T13:20:26.008Z",
  "networkType": "ethereum",
  "devdoc": {
    "kind": "dev",
    "methods": {
      "approve(address,uint256)": {
        "details": "See {IERC721-approve}."
      },
      "balanceOf(address)": {
        "details": "See {IERC721-balanceOf}."
      },
      "getApproved(uint256)": {
        "details": "See {IERC721-getApproved}."
      },
      "isApprovedForAll(address,address)": {
        "details": "See {IERC721-isApprovedForAll}."
      },
      "name()": {
        "details": "See {IERC721Metadata-name}."
      },
      "ownerOf(uint256)": {
        "details": "See {IERC721-ownerOf}."
      },
      "safeTransferFrom(address,address,uint256)": {
        "details": "See {IERC721-safeTransferFrom}."
      },
      "safeTransferFrom(address,address,uint256,bytes)": {
        "details": "See {IERC721-safeTransferFrom}."
      },
      "setApprovalForAll(address,bool)": {
        "details": "See {IERC721-setApprovalForAll}."
      },
      "supportsInterface(bytes4)": {
        "details": "See {IERC165-supportsInterface}."
      },
      "symbol()": {
        "details": "See {IERC721Metadata-symbol}."
      },
      "tokenURI(uint256)": {
        "details": "See {IERC721Metadata-tokenURI}."
      },
      "transferFrom(address,address,uint256)": {
        "details": "See {IERC721-transferFrom}."
      }
    },
    "version": 1
  },
  "userdoc": {
    "kind": "user",
    "methods": {},
    "version": 1
  }
}