{
  "contractName": "Market",
  "abi": [
    {
      "inputs": [
        {
          "internalType": "address",
          "name": "_BFTaddress",
          "type": "address"
        }
      ],
      "stateMutability": "nonpayable",
      "type": "constructor"
    },
    {
      "inputs": [
        {
          "internalType": "uint256",
          "name": "_tokenId",
          "type": "uint256"
        }
      ],
      "name": "buyToken",
      "outputs": [],
      "stateMutability": "payable",
      "type": "function",
      "payable": true
    },
    {
      "inputs": [],
      "name": "getMarketBalance",
      "outputs": [
        {
          "internalType": "uint256",
          "name": "",
          "type": "uint256"
        }
      ],
      "stateMutability": "view",
      "type": "function",
      "constant": true
    }
  ],
  "bytecode": "0x608060405234801561001057600080fd5b506040516109f33803806109f383398181016040528101906100329190610131565b806000806101000a81548173ffffffffffffffffffffffffffffffffffffffff021916908373ffffffffffffffffffffffffffffffffffffffff1602179055506100813061008760201b60201c565b506101cd565b60008060009054906101000a900473ffffffffffffffffffffffffffffffffffffffff1690508073ffffffffffffffffffffffffffffffffffffffff1663fe3730be836040518263ffffffff1660e01b81526004016100e69190610169565b600060405180830381600087803b15801561010057600080fd5b505af1158015610114573d6000803e3d6000fd5b505050505050565b60008151905061012b816101b6565b92915050565b60006020828403121561014357600080fd5b60006101518482850161011c565b91505092915050565b61016381610184565b82525050565b600060208201905061017e600083018461015a565b92915050565b600061018f82610196565b9050919050565b600073ffffffffffffffffffffffffffffffffffffffff82169050919050565b6101bf81610184565b81146101ca57600080fd5b50565b610817806101dc6000396000f3fe6080604052600436106100295760003560e01c80632d296bf11461002e578063964eec701461004a575b600080fd5b6100486004803603810190610043919061050c565b610075565b005b34801561005657600080fd5b5061005f61049c565b60405161006c9190610722565b60405180910390f35b60008060009054906101000a900473ffffffffffffffffffffffffffffffffffffffff16905060008173ffffffffffffffffffffffffffffffffffffffff16636352211e846040518263ffffffff1660e01b81526004016100d69190610722565b60206040518083038186803b1580156100ee57600080fd5b505afa158015610102573d6000803e3d6000fd5b505050506040513d601f19601f8201168201806040525081019061012691906104e3565b905060008273ffffffffffffffffffffffffffffffffffffffff1663c457fb37856040518263ffffffff1660e01b81526004016101639190610722565b60206040518083038186803b15801561017b57600080fd5b505afa15801561018f573d6000803e3d6000fd5b505050506040513d601f19601f820116820180604052508101906101b39190610535565b905060008411801561024257508273ffffffffffffffffffffffffffffffffffffffff1663a87d942c6040518163ffffffff1660e01b815260040160206040518083038186803b15801561020657600080fd5b505afa15801561021a573d6000803e3d6000fd5b505050506040513d601f19601f8201168201806040525081019061023e9190610535565b8411155b610281576040517f08c379a0000000000000000000000000000000000000000000000000000000008152600401610278906106e2565b60405180910390fd5b8173ffffffffffffffffffffffffffffffffffffffff163373ffffffffffffffffffffffffffffffffffffffff1614156102f0576040517f08c379a00000000000000000000000000000000000000000000000000000000081526004016102e7906106a2565b60405180910390fd5b60008111610333576040517f08c379a000000000000000000000000000000000000000000000000000000000815260040161032a90610702565b60405180910390fd5b803414610375576040517f08c379a000000000000000000000000000000000000000000000000000000000815260040161036c906106c2565b60405180910390fd5b8273ffffffffffffffffffffffffffffffffffffffff16632fe1bccd85336040518363ffffffff1660e01b81526004016103b092919061073d565b600060405180830381600087803b1580156103ca57600080fd5b505af11580156103de573d6000803e3d6000fd5b505050508173ffffffffffffffffffffffffffffffffffffffff166108fc349081150290604051600060405180830381858888f19350505050158015610428573d6000803e3d6000fd5b508273ffffffffffffffffffffffffffffffffffffffff16637237855485336040518363ffffffff1660e01b815260040161046492919061073d565b600060405180830381600087803b15801561047e57600080fd5b505af1158015610492573d6000803e3d6000fd5b5050505050505050565b600047905090565b6000815190506104b3816107b3565b92915050565b6000813590506104c8816107ca565b92915050565b6000815190506104dd816107ca565b92915050565b6000602082840312156104f557600080fd5b6000610503848285016104a4565b91505092915050565b60006020828403121561051e57600080fd5b600061052c848285016104b9565b91505092915050565b60006020828403121561054757600080fd5b6000610555848285016104ce565b91505092915050565b61056781610777565b82525050565b600061057a602583610766565b91507f596f75206172652053656c6c65722c2053656c6c65722063616e6e6f7420707560008301527f63686173650000000000000000000000000000000000000000000000000000006020830152604082019050919050565b60006105e0601283610766565b91507f496e636f7272656374656420616d6f756e7400000000000000000000000000006000830152602082019050919050565b6000610620601b83610766565b91507f446f6573206e6f74206578697374732074686520746f6b656e496400000000006000830152602082019050919050565b6000610660601883610766565b91507f446f6573206e6f742073616c65732074686520746f6b656e00000000000000006000830152602082019050919050565b61069c816107a9565b82525050565b600060208201905081810360008301526106bb8161056d565b9050919050565b600060208201905081810360008301526106db816105d3565b9050919050565b600060208201905081810360008301526106fb81610613565b9050919050565b6000602082019050818103600083015261071b81610653565b9050919050565b60006020820190506107376000830184610693565b92915050565b60006040820190506107526000830185610693565b61075f602083018461055e565b9392505050565b600082825260208201905092915050565b600061078282610789565b9050919050565b600073ffffffffffffffffffffffffffffffffffffffff82169050919050565b6000819050919050565b6107bc81610777565b81146107c757600080fd5b50565b6107d3816107a9565b81146107de57600080fd5b5056fea2646970667358221220c2c008132f16efd7908560e9b53112078471bc06a657e389d4e3ad8fc036427464736f6c63430008000033",
  "immutableReferences": {},
  "source": "// SPDX-License-Identifier: MIT\npragma solidity ^0.8.0;\n\nimport \"./BscNFT.sol\";\n\ncontract Market {\n    address private BFTaddress; // BscNFT address\n\n    constructor(address _BFTaddress) {\n        BFTaddress = _BFTaddress; // BscNFT address\n        setApproveAddress(address(this)); // set the Market address to approve\n    }\n\n    // set the Market address to approve\n    function setApproveAddress(address _Marketaddress) private {\n        BscNFT _BFT = BscNFT(BFTaddress);\n        _BFT.setApproveAddress(_Marketaddress);\n    }\n\n    // buy the token\n    function buyToken(uint256 _tokenId) public payable {\n        BscNFT _BFT = BscNFT(BFTaddress);\n        address seller = _BFT.ownerOf(_tokenId);\n        uint256 price = _BFT.getTokenPrice(_tokenId);\n\n        require(_tokenId > 0 && _tokenId <= _BFT.getCount(), \"Does not exists the tokenId\");\n        require(msg.sender != seller, \"You are Seller, Seller cannot puchase\");\n        require(price > 0, \"Does not sales the token\");\n        require(msg.value == price, \"Incorrected amount\");\n        \n        // edit myTokenList and ownerhistory\n        _BFT.editList(_tokenId, msg.sender);\n\n        // payment od price\n        // payable(seller).call{value: msg.value}(\"\"); // return type is bool\n        payable(seller).transfer(msg.value);\n\n        // transfer the token from seller to buyer\n        _BFT.sendToken(_tokenId, msg.sender);\n    }\n\n    // get contract balance\n    function getMarketBalance() public view returns(uint256) {\n        return address(this).balance;\n    }\n}",
  "sourcePath": "/Users/yua83/Practice/BSCnft/solidity/contracts/Market.sol",
  "compiler": {
    "name": "solc",
    "version": "0.8.0+commit.c7dfd78e.Emscripten.clang"
  },
  "schemaVersion": "3.4.3",
  "updatedAt": "2021-12-16T13:20:26.021Z",
  "networkType": "ethereum",
  "devdoc": {
    "kind": "dev",
    "methods": {},
    "version": 1
  },
  "userdoc": {
    "kind": "user",
    "methods": {},
    "version": 1
  }
}