{
  "contractName": "BFT",
  "abi": [
    {
      "inputs": [],
      "stateMutability": "nonpayable",
      "type": "constructor"
    },
    {
      "anonymous": false,
      "inputs": [
        {
          "indexed": true,
          "internalType": "address",
          "name": "owner",
          "type": "address"
        },
        {
          "indexed": true,
          "internalType": "address",
          "name": "approved",
          "type": "address"
        },
        {
          "indexed": true,
          "internalType": "uint256",
          "name": "tokenId",
          "type": "uint256"
        }
      ],
      "name": "Approval",
      "type": "event"
    },
    {
      "anonymous": false,
      "inputs": [
        {
          "indexed": true,
          "internalType": "address",
          "name": "owner",
          "type": "address"
        },
        {
          "indexed": true,
          "internalType": "address",
          "name": "operator",
          "type": "address"
        },
        {
          "indexed": false,
          "internalType": "bool",
          "name": "approved",
          "type": "bool"
        }
      ],
      "name": "ApprovalForAll",
      "type": "event"
    },
    {
      "anonymous": false,
      "inputs": [
        {
          "indexed": true,
          "internalType": "address",
          "name": "from",
          "type": "address"
        },
        {
          "indexed": true,
          "internalType": "address",
          "name": "to",
          "type": "address"
        },
        {
          "indexed": true,
          "internalType": "uint256",
          "name": "tokenId",
          "type": "uint256"
        }
      ],
      "name": "Transfer",
      "type": "event"
    },
    {
      "inputs": [
        {
          "internalType": "address",
          "name": "to",
          "type": "address"
        },
        {
          "internalType": "uint256",
          "name": "tokenId",
          "type": "uint256"
        }
      ],
      "name": "approve",
      "outputs": [],
      "stateMutability": "nonpayable",
      "type": "function"
    },
    {
      "inputs": [
        {
          "internalType": "address",
          "name": "owner",
          "type": "address"
        }
      ],
      "name": "balanceOf",
      "outputs": [
        {
          "internalType": "uint256",
          "name": "",
          "type": "uint256"
        }
      ],
      "stateMutability": "view",
      "type": "function",
      "constant": true
    },
    {
      "inputs": [
        {
          "internalType": "uint256",
          "name": "tokenId",
          "type": "uint256"
        }
      ],
      "name": "getApproved",
      "outputs": [
        {
          "internalType": "address",
          "name": "",
          "type": "address"
        }
      ],
      "stateMutability": "view",
      "type": "function",
      "constant": true
    },
    {
      "inputs": [
        {
          "internalType": "address",
          "name": "owner",
          "type": "address"
        },
        {
          "internalType": "address",
          "name": "operator",
          "type": "address"
        }
      ],
      "name": "isApprovedForAll",
      "outputs": [
        {
          "internalType": "bool",
          "name": "",
          "type": "bool"
        }
      ],
      "stateMutability": "view",
      "type": "function",
      "constant": true
    },
    {
      "inputs": [],
      "name": "name",
      "outputs": [
        {
          "internalType": "string",
          "name": "",
          "type": "string"
        }
      ],
      "stateMutability": "view",
      "type": "function",
      "constant": true
    },
    {
      "inputs": [
        {
          "internalType": "uint256",
          "name": "tokenId",
          "type": "uint256"
        }
      ],
      "name": "ownerOf",
      "outputs": [
        {
          "internalType": "address",
          "name": "",
          "type": "address"
        }
      ],
      "stateMutability": "view",
      "type": "function",
      "constant": true
    },
    {
      "inputs": [
        {
          "internalType": "address",
          "name": "from",
          "type": "address"
        },
        {
          "internalType": "address",
          "name": "to",
          "type": "address"
        },
        {
          "internalType": "uint256",
          "name": "tokenId",
          "type": "uint256"
        }
      ],
      "name": "safeTransferFrom",
      "outputs": [],
      "stateMutability": "nonpayable",
      "type": "function"
    },
    {
      "inputs": [
        {
          "internalType": "address",
          "name": "from",
          "type": "address"
        },
        {
          "internalType": "address",
          "name": "to",
          "type": "address"
        },
        {
          "internalType": "uint256",
          "name": "tokenId",
          "type": "uint256"
        },
        {
          "internalType": "bytes",
          "name": "_data",
          "type": "bytes"
        }
      ],
      "name": "safeTransferFrom",
      "outputs": [],
      "stateMutability": "nonpayable",
      "type": "function"
    },
    {
      "inputs": [
        {
          "internalType": "address",
          "name": "operator",
          "type": "address"
        },
        {
          "internalType": "bool",
          "name": "approved",
          "type": "bool"
        }
      ],
      "name": "setApprovalForAll",
      "outputs": [],
      "stateMutability": "nonpayable",
      "type": "function"
    },
    {
      "inputs": [
        {
          "internalType": "bytes4",
          "name": "interfaceId",
          "type": "bytes4"
        }
      ],
      "name": "supportsInterface",
      "outputs": [
        {
          "internalType": "bool",
          "name": "",
          "type": "bool"
        }
      ],
      "stateMutability": "view",
      "type": "function",
      "constant": true
    },
    {
      "inputs": [],
      "name": "symbol",
      "outputs": [
        {
          "internalType": "string",
          "name": "",
          "type": "string"
        }
      ],
      "stateMutability": "view",
      "type": "function",
      "constant": true
    },
    {
      "inputs": [
        {
          "internalType": "uint256",
          "name": "tokenId",
          "type": "uint256"
        }
      ],
      "name": "tokenURI",
      "outputs": [
        {
          "internalType": "string",
          "name": "",
          "type": "string"
        }
      ],
      "stateMutability": "view",
      "type": "function",
      "constant": true
    },
    {
      "inputs": [
        {
          "internalType": "address",
          "name": "from",
          "type": "address"
        },
        {
          "internalType": "address",
          "name": "to",
          "type": "address"
        },
        {
          "internalType": "uint256",
          "name": "tokenId",
          "type": "uint256"
        }
      ],
      "name": "transferFrom",
      "outputs": [],
      "stateMutability": "nonpayable",
      "type": "function"
    },
    {
      "inputs": [
        {
          "internalType": "address",
          "name": "_from",
          "type": "address"
        },
        {
          "internalType": "string",
          "name": "_uri",
          "type": "string"
        }
      ],
      "name": "create",
      "outputs": [],
      "stateMutability": "nonpayable",
      "type": "function"
    },
    {
      "inputs": [
        {
          "internalType": "uint256",
          "name": "_tokenId",
          "type": "uint256"
        },
        {
          "internalType": "address",
          "name": "_to",
          "type": "address"
        },
        {
          "internalType": "address",
          "name": "_from",
          "type": "address"
        }
      ],
      "name": "sendToken",
      "outputs": [],
      "stateMutability": "nonpayable",
      "type": "function"
    },
    {
      "inputs": [],
      "name": "getCount",
      "outputs": [
        {
          "internalType": "uint256",
          "name": "",
          "type": "uint256"
        }
      ],
      "stateMutability": "view",
      "type": "function",
      "constant": true
    },
    {
      "inputs": [
        {
          "internalType": "uint256",
          "name": "_tokenId",
          "type": "uint256"
        }
      ],
      "name": "getOwnerList",
      "outputs": [
        {
          "internalType": "address[]",
          "name": "",
          "type": "address[]"
        }
      ],
      "stateMutability": "view",
      "type": "function",
      "constant": true
    },
    {
      "inputs": [
        {
          "internalType": "address",
          "name": "_account",
          "type": "address"
        }
      ],
      "name": "getTokenList",
      "outputs": [
        {
          "internalType": "uint256[]",
          "name": "",
          "type": "uint256[]"
        }
      ],
      "stateMutability": "view",
      "type": "function",
      "constant": true
    }
  ],
  "bytecode": "0x60806040523480156200001157600080fd5b506040518060400160405280601381526020017f4253434e6f6e46756e6769626c65546f6b656e000000000000000000000000008152506040518060400160405280600381526020017f4246540000000000000000000000000000000000000000000000000000000000815250816000908051906020019062000096929190620000b8565b508060019080519060200190620000af929190620000b8565b505050620001cd565b828054620000c69062000168565b90600052602060002090601f016020900481019282620000ea576000855562000136565b82601f106200010557805160ff191683800117855562000136565b8280016001018555821562000136579182015b828111156200013557825182559160200191906001019062000118565b5b50905062000145919062000149565b5090565b5b80821115620001645760008160009055506001016200014a565b5090565b600060028204905060018216806200018157607f821691505b602082108114156200019857620001976200019e565b5b50919050565b7f4e487b7100000000000000000000000000000000000000000000000000000000600052602260045260246000fd5b61325380620001dd6000396000f3fe608060405234801561001057600080fd5b50600436106101165760003560e01c806395d89b41116100a2578063a87d942c11610071578063a87d942c146102ef578063b88d4fde1461030d578063c87b56dd14610329578063d8a3073214610359578063e985e9c51461038957610116565b806395d89b411461027d5780639fbf50731461029b578063a15ab08d146102b7578063a22cb465146102d357610116565b806323b872dd116100e957806323b872dd146101b557806342842e0e146101d15780636352211e146101ed57806370a082311461021d5780638dd95e991461024d57610116565b806301ffc9a71461011b57806306fdde031461014b578063081812fc14610169578063095ea7b314610199575b600080fd5b610135600480360381019061013091906121d8565b6103b9565b6040516101429190612b39565b60405180910390f35b61015361049b565b6040516101609190612b54565b60405180910390f35b610183600480360381019061017e919061222a565b61052d565b6040516101909190612a8e565b60405180910390f35b6101b360048036038101906101ae919061219c565b6105b2565b005b6101cf60048036038101906101ca9190612042565b6106ca565b005b6101eb60048036038101906101e69190612042565b61072a565b005b6102076004803603810190610202919061222a565b61074a565b6040516102149190612a8e565b60405180910390f35b61023760048036038101906102329190611fdd565b6107fc565b6040516102449190612d76565b60405180910390f35b6102676004803603810190610262919061222a565b6108b4565b6040516102749190612af5565b60405180910390f35b610285610955565b6040516102929190612b54565b60405180910390f35b6102b560048036038101906102b09190612253565b6109e7565b005b6102d160048036038101906102cc9190612148565b610c41565b005b6102ed60048036038101906102e8919061210c565b610d4c565b005b6102f7610d62565b6040516103049190612d76565b60405180910390f35b61032760048036038101906103229190612091565b610d8f565b005b610343600480360381019061033e919061222a565b610df1565b6040516103509190612b54565b60405180910390f35b610373600480360381019061036e9190611fdd565b610f43565b6040516103809190612b17565b60405180910390f35b6103a3600480360381019061039e9190612006565b610fda565b6040516103b09190612b39565b60405180910390f35b60007f80ac58cd000000000000000000000000000000000000000000000000000000007bffffffffffffffffffffffffffffffffffffffffffffffffffffffff1916827bffffffffffffffffffffffffffffffffffffffffffffffffffffffff1916148061048457507f5b5e139f000000000000000000000000000000000000000000000000000000007bffffffffffffffffffffffffffffffffffffffffffffffffffffffff1916827bffffffffffffffffffffffffffffffffffffffffffffffffffffffff1916145b8061049457506104938261106e565b5b9050919050565b6060600080546104aa90613048565b80601f01602080910402602001604051908101604052809291908181526020018280546104d690613048565b80156105235780601f106104f857610100808354040283529160200191610523565b820191906000526020600020905b81548152906001019060200180831161050657829003601f168201915b5050505050905090565b6000610538826110d8565b610577576040517f08c379a000000000000000000000000000000000000000000000000000000000815260040161056e90612cd6565b60405180910390fd5b6004600083815260200190815260200160002060009054906101000a900473ffffffffffffffffffffffffffffffffffffffff169050919050565b60006105bd8261074a565b90508073ffffffffffffffffffffffffffffffffffffffff168373ffffffffffffffffffffffffffffffffffffffff16141561062e576040517f08c379a000000000000000000000000000000000000000000000000000000000815260040161062590612d36565b60405180910390fd5b8073ffffffffffffffffffffffffffffffffffffffff1661064d611144565b73ffffffffffffffffffffffffffffffffffffffff16148061067c575061067b81610676611144565b610fda565b5b6106bb576040517f08c379a00000000000000000000000000000000000000000000000000000000081526004016106b290612c16565b60405180910390fd5b6106c5838361114c565b505050565b6106db6106d5611144565b82611205565b61071a576040517f08c379a000000000000000000000000000000000000000000000000000000000815260040161071190612d56565b60405180910390fd5b6107258383836112e3565b505050565b61074583838360405180602001604052806000815250610d8f565b505050565b6000806002600084815260200190815260200160002060009054906101000a900473ffffffffffffffffffffffffffffffffffffffff169050600073ffffffffffffffffffffffffffffffffffffffff168173ffffffffffffffffffffffffffffffffffffffff1614156107f3576040517f08c379a00000000000000000000000000000000000000000000000000000000081526004016107ea90612c56565b60405180910390fd5b80915050919050565b60008073ffffffffffffffffffffffffffffffffffffffff168273ffffffffffffffffffffffffffffffffffffffff16141561086d576040517f08c379a000000000000000000000000000000000000000000000000000000000815260040161086490612c36565b60405180910390fd5b600360008373ffffffffffffffffffffffffffffffffffffffff1673ffffffffffffffffffffffffffffffffffffffff168152602001908152602001600020549050919050565b60606008600083815260200190815260200160002080548060200260200160405190810160405280929190818152602001828054801561094957602002820191906000526020600020905b8160009054906101000a900473ffffffffffffffffffffffffffffffffffffffff1673ffffffffffffffffffffffffffffffffffffffff16815260200190600101908083116108ff575b50505050509050919050565b60606001805461096490613048565b80601f016020809104026020016040519081016040528092919081815260200182805461099090613048565b80156109dd5780601f106109b2576101008083540402835291602001916109dd565b820191906000526020600020905b8154815290600101906020018083116109c057829003601f168201915b5050505050905090565b6109f281838561072a565b60086000848152602001908152602001600020829080600181540180825580915050600190039060005260206000200160009091909190916101000a81548173ffffffffffffffffffffffffffffffffffffffff021916908373ffffffffffffffffffffffffffffffffffffffff160217905550600960008373ffffffffffffffffffffffffffffffffffffffff1673ffffffffffffffffffffffffffffffffffffffff16815260200190815260200160002083908060018154018082558091505060019003906000526020600020016000909190919091505560005b600960008373ffffffffffffffffffffffffffffffffffffffff1673ffffffffffffffffffffffffffffffffffffffff16815260200190815260200160002080549050811015610c3b5783600960008473ffffffffffffffffffffffffffffffffffffffff1673ffffffffffffffffffffffffffffffffffffffff1681526020019081526020016000208281548110610b91577f4e487b7100000000000000000000000000000000000000000000000000000000600052603260045260246000fd5b90600052602060002001541415610c2857600960008373ffffffffffffffffffffffffffffffffffffffff1673ffffffffffffffffffffffffffffffffffffffff1681526020019081526020016000208181548110610c19577f4e487b7100000000000000000000000000000000000000000000000000000000600052603260045260246000fd5b90600052602060002001600090555b8080610c339061307a565b915050610acf565b50505050565b610c4b600761153f565b6000610c576007611555565b9050610c638382611563565b610c6d8183611581565b60086000828152602001908152602001600020339080600181540180825580915050600190039060005260206000200160009091909190916101000a81548173ffffffffffffffffffffffffffffffffffffffff021916908373ffffffffffffffffffffffffffffffffffffffff160217905550600960003373ffffffffffffffffffffffffffffffffffffffff1673ffffffffffffffffffffffffffffffffffffffff168152602001908152602001600020819080600181540180825580915050600190039060005260206000200160009091909190915055505050565b610d5e610d57611144565b83836115f5565b5050565b60006001610d706007611555565b1015610d7f5760009050610d8c565b610d896007611555565b90505b90565b610da0610d9a611144565b83611205565b610ddf576040517f08c379a0000000000000000000000000000000000000000000000000000000008152600401610dd690612d56565b60405180910390fd5b610deb84848484611762565b50505050565b6060610dfc826110d8565b610e3b576040517f08c379a0000000000000000000000000000000000000000000000000000000008152600401610e3290612cb6565b60405180910390fd5b6000600660008481526020019081526020016000208054610e5b90613048565b80601f0160208091040260200160405190810160405280929190818152602001828054610e8790613048565b8015610ed45780601f10610ea957610100808354040283529160200191610ed4565b820191906000526020600020905b815481529060010190602001808311610eb757829003601f168201915b505050505090506000610ee56117be565b9050600081511415610efb578192505050610f3e565b600082511115610f30578082604051602001610f18929190612a6a565b60405160208183030381529060405292505050610f3e565b610f39846117d5565b925050505b919050565b6060600960008373ffffffffffffffffffffffffffffffffffffffff1673ffffffffffffffffffffffffffffffffffffffff168152602001908152602001600020805480602002602001604051908101604052809291908181526020018280548015610fce57602002820191906000526020600020905b815481526020019060010190808311610fba575b50505050509050919050565b6000600560008473ffffffffffffffffffffffffffffffffffffffff1673ffffffffffffffffffffffffffffffffffffffff16815260200190815260200160002060008373ffffffffffffffffffffffffffffffffffffffff1673ffffffffffffffffffffffffffffffffffffffff16815260200190815260200160002060009054906101000a900460ff16905092915050565b60007f01ffc9a7000000000000000000000000000000000000000000000000000000007bffffffffffffffffffffffffffffffffffffffffffffffffffffffff1916827bffffffffffffffffffffffffffffffffffffffffffffffffffffffff1916149050919050565b60008073ffffffffffffffffffffffffffffffffffffffff166002600084815260200190815260200160002060009054906101000a900473ffffffffffffffffffffffffffffffffffffffff1673ffffffffffffffffffffffffffffffffffffffff1614159050919050565b600033905090565b816004600083815260200190815260200160002060006101000a81548173ffffffffffffffffffffffffffffffffffffffff021916908373ffffffffffffffffffffffffffffffffffffffff160217905550808273ffffffffffffffffffffffffffffffffffffffff166111bf8361074a565b73ffffffffffffffffffffffffffffffffffffffff167f8c5be1e5ebec7d5bd14f71427d1e84f3dd0314c0f7b2291e5b200ac8c7c3b92560405160405180910390a45050565b6000611210826110d8565b61124f576040517f08c379a000000000000000000000000000000000000000000000000000000000815260040161124690612bf6565b60405180910390fd5b600061125a8361074a565b90508073ffffffffffffffffffffffffffffffffffffffff168473ffffffffffffffffffffffffffffffffffffffff1614806112c957508373ffffffffffffffffffffffffffffffffffffffff166112b18461052d565b73ffffffffffffffffffffffffffffffffffffffff16145b806112da57506112d98185610fda565b5b91505092915050565b8273ffffffffffffffffffffffffffffffffffffffff166113038261074a565b73ffffffffffffffffffffffffffffffffffffffff1614611359576040517f08c379a000000000000000000000000000000000000000000000000000000000815260040161135090612cf6565b60405180910390fd5b600073ffffffffffffffffffffffffffffffffffffffff168273ffffffffffffffffffffffffffffffffffffffff1614156113c9576040517f08c379a00000000000000000000000000000000000000000000000000000000081526004016113c090612bb6565b60405180910390fd5b6113d483838361187c565b6113df60008261114c565b6001600360008573ffffffffffffffffffffffffffffffffffffffff1673ffffffffffffffffffffffffffffffffffffffff168152602001908152602001600020600082825461142f9190612f5e565b925050819055506001600360008473ffffffffffffffffffffffffffffffffffffffff1673ffffffffffffffffffffffffffffffffffffffff16815260200190815260200160002060008282546114869190612ed7565b92505081905550816002600083815260200190815260200160002060006101000a81548173ffffffffffffffffffffffffffffffffffffffff021916908373ffffffffffffffffffffffffffffffffffffffff160217905550808273ffffffffffffffffffffffffffffffffffffffff168473ffffffffffffffffffffffffffffffffffffffff167fddf252ad1be2c89b69c2b068fc378daa952ba7f163c4a11628f55a4df523b3ef60405160405180910390a4505050565b6001816000016000828254019250508190555050565b600081600001549050919050565b61157d828260405180602001604052806000815250611881565b5050565b61158a826110d8565b6115c9576040517f08c379a00000000000000000000000000000000000000000000000000000000081526004016115c090612c76565b60405180910390fd5b806006600084815260200190815260200160002090805190602001906115f0929190611e01565b505050565b8173ffffffffffffffffffffffffffffffffffffffff168373ffffffffffffffffffffffffffffffffffffffff161415611664576040517f08c379a000000000000000000000000000000000000000000000000000000000815260040161165b90612bd6565b60405180910390fd5b80600560008573ffffffffffffffffffffffffffffffffffffffff1673ffffffffffffffffffffffffffffffffffffffff16815260200190815260200160002060008473ffffffffffffffffffffffffffffffffffffffff1673ffffffffffffffffffffffffffffffffffffffff16815260200190815260200160002060006101000a81548160ff0219169083151502179055508173ffffffffffffffffffffffffffffffffffffffff168373ffffffffffffffffffffffffffffffffffffffff167f17307eab39ab6107e8899845ad3d59bd9653f200f220920489ca2b5937696c31836040516117559190612b39565b60405180910390a3505050565b61176d8484846112e3565b611779848484846118dc565b6117b8576040517f08c379a00000000000000000000000000000000000000000000000000000000081526004016117af90612b76565b60405180910390fd5b50505050565b606060405180602001604052806000815250905090565b60606117e0826110d8565b61181f576040517f08c379a000000000000000000000000000000000000000000000000000000000815260040161181690612d16565b60405180910390fd5b60006118296117be565b905060008151116118495760405180602001604052806000815250611874565b8061185384611a73565b604051602001611864929190612a6a565b6040516020818303038152906040525b915050919050565b505050565b61188b8383611c20565b61189860008484846118dc565b6118d7576040517f08c379a00000000000000000000000000000000000000000000000000000000081526004016118ce90612b76565b60405180910390fd5b505050565b60006118fd8473ffffffffffffffffffffffffffffffffffffffff16611dee565b15611a66578373ffffffffffffffffffffffffffffffffffffffff1663150b7a02611926611144565b8786866040518563ffffffff1660e01b81526004016119489493929190612aa9565b602060405180830381600087803b15801561196257600080fd5b505af192505050801561199357506040513d601f19601f820116820180604052508101906119909190612201565b60015b611a16573d80600081146119c3576040519150601f19603f3d011682016040523d82523d6000602084013e6119c8565b606091505b50600081511415611a0e576040517f08c379a0000000000000000000000000000000000000000000000000000000008152600401611a0590612b76565b60405180910390fd5b805181602001fd5b63150b7a0260e01b7bffffffffffffffffffffffffffffffffffffffffffffffffffffffff1916817bffffffffffffffffffffffffffffffffffffffffffffffffffffffff191614915050611a6b565b600190505b949350505050565b60606000821415611abb576040518060400160405280600181526020017f30000000000000000000000000000000000000000000000000000000000000008152509050611c1b565b600082905060005b60008214611aed578080611ad69061307a565b915050600a82611ae69190612f2d565b9150611ac3565b60008167ffffffffffffffff811115611b2f577f4e487b7100000000000000000000000000000000000000000000000000000000600052604160045260246000fd5b6040519080825280601f01601f191660200182016040528015611b615781602001600182028036833780820191505090505b5090505b60008514611c1457600182611b7a9190612f5e565b9150600a85611b8991906130c3565b6030611b959190612ed7565b60f81b818381518110611bd1577f4e487b7100000000000000000000000000000000000000000000000000000000600052603260045260246000fd5b60200101907effffffffffffffffffffffffffffffffffffffffffffffffffffffffffffff1916908160001a905350600a85611c0d9190612f2d565b9450611b65565b8093505050505b919050565b600073ffffffffffffffffffffffffffffffffffffffff168273ffffffffffffffffffffffffffffffffffffffff161415611c90576040517f08c379a0000000000000000000000000000000000000000000000000000000008152600401611c8790612c96565b60405180910390fd5b611c99816110d8565b15611cd9576040517f08c379a0000000000000000000000000000000000000000000000000000000008152600401611cd090612b96565b60405180910390fd5b611ce56000838361187c565b6001600360008473ffffffffffffffffffffffffffffffffffffffff1673ffffffffffffffffffffffffffffffffffffffff1681526020019081526020016000206000828254611d359190612ed7565b92505081905550816002600083815260200190815260200160002060006101000a81548173ffffffffffffffffffffffffffffffffffffffff021916908373ffffffffffffffffffffffffffffffffffffffff160217905550808273ffffffffffffffffffffffffffffffffffffffff16600073ffffffffffffffffffffffffffffffffffffffff167fddf252ad1be2c89b69c2b068fc378daa952ba7f163c4a11628f55a4df523b3ef60405160405180910390a45050565b600080823b905060008111915050919050565b828054611e0d90613048565b90600052602060002090601f016020900481019282611e2f5760008555611e76565b82601f10611e4857805160ff1916838001178555611e76565b82800160010185558215611e76579182015b82811115611e75578251825591602001919060010190611e5a565b5b509050611e839190611e87565b5090565b5b80821115611ea0576000816000905550600101611e88565b5090565b6000611eb7611eb284612dc2565b612d91565b905082815260208101848484011115611ecf57600080fd5b611eda848285613006565b509392505050565b6000611ef5611ef084612df2565b612d91565b905082815260208101848484011115611f0d57600080fd5b611f18848285613006565b509392505050565b600081359050611f2f816131c1565b92915050565b600081359050611f44816131d8565b92915050565b600081359050611f59816131ef565b92915050565b600081519050611f6e816131ef565b92915050565b600082601f830112611f8557600080fd5b8135611f95848260208601611ea4565b91505092915050565b600082601f830112611faf57600080fd5b8135611fbf848260208601611ee2565b91505092915050565b600081359050611fd781613206565b92915050565b600060208284031215611fef57600080fd5b6000611ffd84828501611f20565b91505092915050565b6000806040838503121561201957600080fd5b600061202785828601611f20565b925050602061203885828601611f20565b9150509250929050565b60008060006060848603121561205757600080fd5b600061206586828701611f20565b935050602061207686828701611f20565b925050604061208786828701611fc8565b9150509250925092565b600080600080608085870312156120a757600080fd5b60006120b587828801611f20565b94505060206120c687828801611f20565b93505060406120d787828801611fc8565b925050606085013567ffffffffffffffff8111156120f457600080fd5b61210087828801611f74565b91505092959194509250565b6000806040838503121561211f57600080fd5b600061212d85828601611f20565b925050602061213e85828601611f35565b9150509250929050565b6000806040838503121561215b57600080fd5b600061216985828601611f20565b925050602083013567ffffffffffffffff81111561218657600080fd5b61219285828601611f9e565b9150509250929050565b600080604083850312156121af57600080fd5b60006121bd85828601611f20565b92505060206121ce85828601611fc8565b9150509250929050565b6000602082840312156121ea57600080fd5b60006121f884828501611f4a565b91505092915050565b60006020828403121561221357600080fd5b600061222184828501611f5f565b91505092915050565b60006020828403121561223c57600080fd5b600061224a84828501611fc8565b91505092915050565b60008060006060848603121561226857600080fd5b600061227686828701611fc8565b935050602061228786828701611f20565b925050604061229886828701611f20565b9150509250925092565b60006122ae83836122d2565b60208301905092915050565b60006122c68383612a4c565b60208301905092915050565b6122db81612f92565b82525050565b6122ea81612f92565b82525050565b60006122fb82612e42565b6123058185612e88565b935061231083612e22565b8060005b8381101561234157815161232888826122a2565b975061233383612e6e565b925050600181019050612314565b5085935050505092915050565b600061235982612e4d565b6123638185612e99565b935061236e83612e32565b8060005b8381101561239f57815161238688826122ba565b975061239183612e7b565b925050600181019050612372565b5085935050505092915050565b6123b581612fa4565b82525050565b60006123c682612e58565b6123d08185612eaa565b93506123e0818560208601613015565b6123e9816131b0565b840191505092915050565b60006123ff82612e63565b6124098185612ebb565b9350612419818560208601613015565b612422816131b0565b840191505092915050565b600061243882612e63565b6124428185612ecc565b9350612452818560208601613015565b80840191505092915050565b600061246b603283612ebb565b91507f4552433732313a207472616e7366657220746f206e6f6e20455243373231526560008301527f63656976657220696d706c656d656e74657200000000000000000000000000006020830152604082019050919050565b60006124d1601c83612ebb565b91507f4552433732313a20746f6b656e20616c7265616479206d696e746564000000006000830152602082019050919050565b6000612511602483612ebb565b91507f4552433732313a207472616e7366657220746f20746865207a65726f2061646460008301527f72657373000000000000000000000000000000000000000000000000000000006020830152604082019050919050565b6000612577601983612ebb565b91507f4552433732313a20617070726f766520746f2063616c6c6572000000000000006000830152602082019050919050565b60006125b7602c83612ebb565b91507f4552433732313a206f70657261746f7220717565727920666f72206e6f6e657860008301527f697374656e7420746f6b656e00000000000000000000000000000000000000006020830152604082019050919050565b600061261d603883612ebb565b91507f4552433732313a20617070726f76652063616c6c6572206973206e6f74206f7760008301527f6e6572206e6f7220617070726f76656420666f7220616c6c00000000000000006020830152604082019050919050565b6000612683602a83612ebb565b91507f4552433732313a2062616c616e636520717565727920666f7220746865207a6560008301527f726f2061646472657373000000000000000000000000000000000000000000006020830152604082019050919050565b60006126e9602983612ebb565b91507f4552433732313a206f776e657220717565727920666f72206e6f6e657869737460008301527f656e7420746f6b656e00000000000000000000000000000000000000000000006020830152604082019050919050565b600061274f602e83612ebb565b91507f45524337323155524953746f726167653a2055524920736574206f66206e6f6e60008301527f6578697374656e7420746f6b656e0000000000000000000000000000000000006020830152604082019050919050565b60006127b5602083612ebb565b91507f4552433732313a206d696e7420746f20746865207a65726f20616464726573736000830152602082019050919050565b60006127f5603183612ebb565b91507f45524337323155524953746f726167653a2055524920717565727920666f722060008301527f6e6f6e6578697374656e7420746f6b656e0000000000000000000000000000006020830152604082019050919050565b600061285b602c83612ebb565b91507f4552433732313a20617070726f76656420717565727920666f72206e6f6e657860008301527f697374656e7420746f6b656e00000000000000000000000000000000000000006020830152604082019050919050565b60006128c1602983612ebb565b91507f4552433732313a207472616e73666572206f6620746f6b656e2074686174206960008301527f73206e6f74206f776e00000000000000000000000000000000000000000000006020830152604082019050919050565b6000612927602f83612ebb565b91507f4552433732314d657461646174613a2055524920717565727920666f72206e6f60008301527f6e6578697374656e7420746f6b656e00000000000000000000000000000000006020830152604082019050919050565b600061298d602183612ebb565b91507f4552433732313a20617070726f76616c20746f2063757272656e74206f776e6560008301527f72000000000000000000000000000000000000000000000000000000000000006020830152604082019050919050565b60006129f3603183612ebb565b91507f4552433732313a207472616e736665722063616c6c6572206973206e6f74206f60008301527f776e6572206e6f7220617070726f7665640000000000000000000000000000006020830152604082019050919050565b612a5581612ffc565b82525050565b612a6481612ffc565b82525050565b6000612a76828561242d565b9150612a82828461242d565b91508190509392505050565b6000602082019050612aa360008301846122e1565b92915050565b6000608082019050612abe60008301876122e1565b612acb60208301866122e1565b612ad86040830185612a5b565b8181036060830152612aea81846123bb565b905095945050505050565b60006020820190508181036000830152612b0f81846122f0565b905092915050565b60006020820190508181036000830152612b31818461234e565b905092915050565b6000602082019050612b4e60008301846123ac565b92915050565b60006020820190508181036000830152612b6e81846123f4565b905092915050565b60006020820190508181036000830152612b8f8161245e565b9050919050565b60006020820190508181036000830152612baf816124c4565b9050919050565b60006020820190508181036000830152612bcf81612504565b9050919050565b60006020820190508181036000830152612bef8161256a565b9050919050565b60006020820190508181036000830152612c0f816125aa565b9050919050565b60006020820190508181036000830152612c2f81612610565b9050919050565b60006020820190508181036000830152612c4f81612676565b9050919050565b60006020820190508181036000830152612c6f816126dc565b9050919050565b60006020820190508181036000830152612c8f81612742565b9050919050565b60006020820190508181036000830152612caf816127a8565b9050919050565b60006020820190508181036000830152612ccf816127e8565b9050919050565b60006020820190508181036000830152612cef8161284e565b9050919050565b60006020820190508181036000830152612d0f816128b4565b9050919050565b60006020820190508181036000830152612d2f8161291a565b9050919050565b60006020820190508181036000830152612d4f81612980565b9050919050565b60006020820190508181036000830152612d6f816129e6565b9050919050565b6000602082019050612d8b6000830184612a5b565b92915050565b6000604051905081810181811067ffffffffffffffff82111715612db857612db7613181565b5b8060405250919050565b600067ffffffffffffffff821115612ddd57612ddc613181565b5b601f19601f8301169050602081019050919050565b600067ffffffffffffffff821115612e0d57612e0c613181565b5b601f19601f8301169050602081019050919050565b6000819050602082019050919050565b6000819050602082019050919050565b600081519050919050565b600081519050919050565b600081519050919050565b600081519050919050565b6000602082019050919050565b6000602082019050919050565b600082825260208201905092915050565b600082825260208201905092915050565b600082825260208201905092915050565b600082825260208201905092915050565b600081905092915050565b6000612ee282612ffc565b9150612eed83612ffc565b9250827fffffffffffffffffffffffffffffffffffffffffffffffffffffffffffffffff03821115612f2257612f216130f4565b5b828201905092915050565b6000612f3882612ffc565b9150612f4383612ffc565b925082612f5357612f52613123565b5b828204905092915050565b6000612f6982612ffc565b9150612f7483612ffc565b925082821015612f8757612f866130f4565b5b828203905092915050565b6000612f9d82612fdc565b9050919050565b60008115159050919050565b60007fffffffff0000000000000000000000000000000000000000000000000000000082169050919050565b600073ffffffffffffffffffffffffffffffffffffffff82169050919050565b6000819050919050565b82818337600083830152505050565b60005b83811015613033578082015181840152602081019050613018565b83811115613042576000848401525b50505050565b6000600282049050600182168061306057607f821691505b6020821081141561307457613073613152565b5b50919050565b600061308582612ffc565b91507fffffffffffffffffffffffffffffffffffffffffffffffffffffffffffffffff8214156130b8576130b76130f4565b5b600182019050919050565b60006130ce82612ffc565b91506130d983612ffc565b9250826130e9576130e8613123565b5b828206905092915050565b7f4e487b7100000000000000000000000000000000000000000000000000000000600052601160045260246000fd5b7f4e487b7100000000000000000000000000000000000000000000000000000000600052601260045260246000fd5b7f4e487b7100000000000000000000000000000000000000000000000000000000600052602260045260246000fd5b7f4e487b7100000000000000000000000000000000000000000000000000000000600052604160045260246000fd5b6000601f19601f8301169050919050565b6131ca81612f92565b81146131d557600080fd5b50565b6131e181612fa4565b81146131ec57600080fd5b50565b6131f881612fb0565b811461320357600080fd5b50565b61320f81612ffc565b811461321a57600080fd5b5056fea2646970667358221220970857c7364705ec6f25dec1c46be13f24c5c96d9ad7556d7aa162dafb21d75064736f6c63430008000033",
  "immutableReferences": {},
  "source": "// SPDX-License-Identifier: MIT\npragma solidity ^0.8.0;\n\nimport \"@openzeppelin/contracts/token/ERC721/ERC721.sol\";\nimport \"@openzeppelin/contracts/token/ERC721/extensions/ERC721URIStorage.sol\";\nimport \"@openzeppelin/contracts/utils/Counters.sol\";\n\ncontract BFT is ERC721URIStorage {\n    using Counters for Counters.Counter;\n    Counters.Counter private _tokenIds;\n\n    constructor() ERC721(\"BSCNonFungibleToken\", \"BFT\") {}\n\n    mapping(uint256 => address[]) ownerList;\n    mapping(address => uint256[]) tokenList;\n\n    function create(address _from, string memory _uri) public {\n        _tokenIds.increment();\n\n        uint256 newId = _tokenIds.current();\n\n        _safeMint(_from, newId);\n        _setTokenURI(newId, _uri);\n\n        ownerList[newId].push(msg.sender);\n        tokenList[msg.sender].push(newId);\n    }\n\n    function sendToken(uint256 _tokenId, address _to, address _from) public {\n        safeTransferFrom(_from, _to, _tokenId);\n        \n        ownerList[_tokenId].push(_to);\n        tokenList[_to].push(_tokenId);\n\n        for(uint i = 0; i < tokenList[_from].length; i++) {\n            if (tokenList[_from][i] == _tokenId)\n                delete tokenList[_from][i];\n        }\n    }\n\n    function getCount() public view returns(uint256) {\n        if (_tokenIds.current() < 1)\n            return 0;\n        else\n            return _tokenIds.current();\n    }\n\n    function getOwnerList(uint256 _tokenId) public view returns(address[] memory) {\n        return ownerList[_tokenId];\n    }\n\n    function getTokenList(address _account) public view returns(uint256[] memory) {\n        return tokenList[_account];\n    }\n}",
  "sourcePath": "/Users/yua83/Practice/BFT/solidity/contracts/BFT.sol",
  "compiler": {
    "name": "solc",
    "version": "0.8.0+commit.c7dfd78e.Emscripten.clang"
  },
  "schemaVersion": "3.4.3",
  "updatedAt": "2021-12-09T07:25:00.830Z",
  "networkType": "ethereum",
  "devdoc": {
    "kind": "dev",
    "methods": {
      "approve(address,uint256)": {
        "details": "See {IERC721-approve}."
      },
      "balanceOf(address)": {
        "details": "See {IERC721-balanceOf}."
      },
      "getApproved(uint256)": {
        "details": "See {IERC721-getApproved}."
      },
      "isApprovedForAll(address,address)": {
        "details": "See {IERC721-isApprovedForAll}."
      },
      "name()": {
        "details": "See {IERC721Metadata-name}."
      },
      "ownerOf(uint256)": {
        "details": "See {IERC721-ownerOf}."
      },
      "safeTransferFrom(address,address,uint256)": {
        "details": "See {IERC721-safeTransferFrom}."
      },
      "safeTransferFrom(address,address,uint256,bytes)": {
        "details": "See {IERC721-safeTransferFrom}."
      },
      "setApprovalForAll(address,bool)": {
        "details": "See {IERC721-setApprovalForAll}."
      },
      "supportsInterface(bytes4)": {
        "details": "See {IERC165-supportsInterface}."
      },
      "symbol()": {
        "details": "See {IERC721Metadata-symbol}."
      },
      "tokenURI(uint256)": {
        "details": "See {IERC721Metadata-tokenURI}."
      },
      "transferFrom(address,address,uint256)": {
        "details": "See {IERC721-transferFrom}."
      }
    },
    "version": 1
  },
  "userdoc": {
    "kind": "user",
    "methods": {},
    "version": 1
  }
}